{
  "contractName": "EventLog",
  "abi": [
    {
      "constant": true,
      "inputs": [],
      "name": "index",
      "outputs": [
        {
          "name": "",
          "type": "uint64"
        }
      ],
      "payable": false,
      "stateMutability": "view",
      "type": "function"
    },
    {
      "anonymous": false,
      "inputs": [
        {
          "indexed": true,
          "name": "index",
          "type": "uint64"
        },
        {
          "indexed": true,
          "name": "from",
          "type": "address"
        },
        {
          "indexed": false,
          "name": "content",
          "type": "string"
        },
        {
          "indexed": false,
          "name": "date",
          "type": "uint256"
        }
      ],
      "name": "Log",
      "type": "event"
    },
    {
      "constant": true,
      "inputs": [],
      "name": "get_index",
      "outputs": [
        {
          "name": "",
          "type": "uint64"
        }
      ],
      "payable": false,
      "stateMutability": "view",
      "type": "function"
    },
    {
      "constant": false,
      "inputs": [
        {
          "name": "content",
          "type": "string"
        }
      ],
      "name": "write",
      "outputs": [],
      "payable": true,
      "stateMutability": "payable",
      "type": "function"
    }
  ],
  "bytecode": "0x608060405260008060006101000a81548167ffffffffffffffff021916908367ffffffffffffffff16021790555034801561003957600080fd5b50610317806100496000396000f3fe608060405260043610610057576000357c0100000000000000000000000000000000000000000000000000000000900463ffffffff1680632986c0e51461005c578063e2a8df5f1461009b578063ebaac771146100da575b600080fd5b34801561006857600080fd5b50610071610195565b604051808267ffffffffffffffff1667ffffffffffffffff16815260200191505060405180910390f35b3480156100a757600080fd5b506100b06101ae565b604051808267ffffffffffffffff1667ffffffffffffffff16815260200191505060405180910390f35b610193600480360360208110156100f057600080fd5b810190808035906020019064010000000081111561010d57600080fd5b82018360208201111561011f57600080fd5b8035906020019184600183028401116401000000008311171561014157600080fd5b91908080601f016020809104026020016040519081016040528093929190818152602001838380828437600081840152601f19601f8201169050808301925050505050505091929192905050506101cb565b005b6000809054906101000a900467ffffffffffffffff1681565b60008060009054906101000a900467ffffffffffffffff16905090565b60016000808282829054906101000a900467ffffffffffffffff160192506101000a81548167ffffffffffffffff021916908367ffffffffffffffff1602179055503373ffffffffffffffffffffffffffffffffffffffff166000809054906101000a900467ffffffffffffffff1667ffffffffffffffff167f6282a6d5b5784fed5294433174d361a836bfbdcc9fad63c048aacbfdc380ecd483426040518080602001838152602001828103825284818151815260200191508051906020019080838360005b838110156102ad578082015181840152602081019050610292565b50505050905090810190601f1680156102da5780820380516001836020036101000a031916815260200191505b50935050505060405180910390a35056fea165627a7a723058201b226f0d175146c81ccc1a9df2d9a7e9fed14941129fd8b87b5ce94e9d514dde0029",
  "source": "pragma solidity ^0.5.0;\n\ncontract EventLog {\n    uint64 public index = 0;\n    event Log(uint64 indexed index, address indexed from, string content, uint256 date);\n    \n    function get_index() public view returns(uint64){\n        return index;\n    }\n\n    function write(string memory content) public payable{\n        index+=1;\n        emit Log(index, msg.sender, content, now);\n    }\n}",
  "sourcePath": "/Users/bruce/projects/blocktest/Houndsoftware/contract/contracts/EventLog.sol",
  "compiler": {
    "name": "solc",
    "version": "0.5.0+commit.1d4f565a.Emscripten.clang"
  },
  "schemaVersion": "3.0.6",
  "updatedAt": "2019-08-09T07:21:06.184Z",
  "devdoc": {
    "methods": {}
  },
  "userdoc": {
    "methods": {}
  }
}